:020000040800F2
:10000000C04F002065020008250F0008690B00089A
:10001000DD0E00082B07000815190008000000007D
:10002000000000000000000000000000CD010008FA
:1000300091080008000000001102000815140008D3
:100040007F0200087F0200087F0200087F0200088C
:100050007F0200087F0200087F0200087F0200087C
:100060007F0200087F0200087F0200087F0200086C
:100070007F0200087F0200087F0200087F0200085C
:100080007F0200087F0200087F0200087F0200084C
:100090007F0200087F0200087F0200087F0200083C
:1000A0007F0200087F0200087F0200087F0200082C
:1000B000791400087F0200087F0200087F02000810
:1000C0007F0200087F0200087F0200087F0200080C
:1000D0007F02000879150008ED1500086916000870
:1000E0007F0200087F0200087F0200087F020008EC
:1000F0007F0200087F0200087F0200087F020008DC
:100100007F0200087F0200087F0200087F020008CB
:100110007F0200087F0200087F0200087F020008BB
:100120007F0200087F0200087F0200087F020008AB
:1001300000F002F800F03AF80AA090E8000C8244BF
:100140008344AAF10107DA4501D100F02FF8AFF29C
:10015000090EBAE80F0013F0010F18BFFB1A43F0A5
:10016000010318471039000030390000103A24BF4D
:1001700078C878C1FAD8520724BF30C830C144BF0C
:1001800004680C607047000000230024002500264E
:10019000103A28BF78C1FBD8520728BF30C148BFEA
:1001A0000B6070471FB51FBD10B510BD00F0F6F80D
:1001B0001146FFF7F7FF01F037FF00F014F903B421
:1001C000FFF7F2FF03BC01F031FC0000224B19687D
:1001D0000868B0E8F00F80F30988BFF36F8F4FF025
:1001E000000080F311884EF00D0E704700000000F3
:1001F00006480068006880F3088862B661B6BFF3FD
:100200004F8FBFF36F8F00DF00BF00BF08ED00E02E
:10021000EFF30980BFF36F8F0F4B1A6820E9F00FDF
:10022000106008B54FF0BF0080F31188BFF34F8F07
:10023000BFF36F8F02F094FF4FF0000080F311883E
:10024000BDE8084019680868B0E8F00F80F3098835
:10025000BFF36F8F704700BF30000020EFF30580C1
:10026000704700000948804709480047FEE7FEE75D
:10027000FEE7FEE7FEE7FEE7FEE7FEE7FEE7FEE756
:1002800004480549054A064B704700002914000838
:1002900031010008C0490020C04F0020C04B0020A1
:1002A000C04B00207047032A40F2308010F0030C4E
:1002B00000F0158011F8013BBCF1020F624498BFB9
:1002C00011F801CB00F8013B38BF11F8013BA2F156
:1002D000040298BF00F801CB38BF00F8013B11F0D1
:1002E000030300F02980083AC0F0088051F8043B6D
:1002F000083A51F804CBA0E80810F5E7121D5CBFDE
:1003000051F8043B40F8043BAFF30080D20724BF10
:1003100011F8013B11F801CB48BF11F8012B24BFA4
:1003200000F8013B00F801CB48BF00F8012B7047F3
:10033000704770477047704710B5203AC0F00B8087
:10034000B1E81850203AA0E81850B1E81850A0E8D9
:100350001850BFF4F5AF5FEA027C24BFB1E8185033
:10036000A0E8185044BF18C918C0BDE810405FEAA3
:10037000827C24BF51F8043B40F8043B08BF70471F
:10038000D20728BF31F8023B48BF11F8012B28BF24
:1003900020F8023B48BF00F8012B7047754600F07B
:1003A0002BF8AE4605006946534620F00700854607
:1003B00018B020B5FFF764FFBDE820404FF00006FD
:1003C0004FF000074FF000084FF0000B21F007013D
:1003D000AC46ACE8C009ACE8C009ACE8C009ACE880
:1003E000C0098D46704710B50446AFF30080204623
:1003F000BDE81040FFF7E3BE0048704760490020A9
:100400002DE9F0410026164F4021384600F078FBD8
:1004100000F0D8FE082001F0EBFB00244021384614
:1004200000F070FB052001F0E3FB00258021384639
:1004300000F05FFB00B1012545EA4600C6B240214D
:10044000384600F05DFB052001F0D2FB641CE4B2ED
:10045000082CE3D3082001F0CBFB3046BDE8F08147
:10046000000C0140F0B589B00646002508950795B7
:10047000069505950495039502950095019500F064
:1004800084F8502001F098FB002440F2E45707E084
:10049000384601F0ADFB2046641CA4B2642803D2A8
:1004A00000F062F80006F3D400F060FB712000F069
:1004B00093F800F05BFEFFF7A3FF08908DF80000B3
:1004C00000F08CFEFFF79CFF07908DF8010000F014
:1004D00085FEFFF795FF06908DF8020000F07EFE86
:1004E000FFF78EFF05908DF8030000F077FEFFF711
:1004F00087FF04908DF8040000F070FEFFF780FF86
:1005000003908DF8050000F069FEFFF779FF029077
:1005100000F08EFE00F04EFB0621684600F060F908
:100520009DF8081088421BD19DF81C0000029DF820
:100530001810084300029DF81410084300093060A9
:100540009DF8140000029DF81010084300029DF869
:100550000C100843C0F313007060012009B0F0BD17
:10056000356075600020F9E710B500F0FFFA7120E2
:1005700000F032F800F0FAFDFFF742FF044600F009
:1005800057FE00F017FB204610BD10B500F0EEFA44
:10059000702000F021F800F0E9FDAC2000F01CF81C
:1005A00000F0E4FD332000F017F800F0DFFD00203C
:1005B00000F012F800F0DAFDBDE8104000F0FABAE1
:1005C00010B51B2000F014FB1C2000F011FBBDE84F
:1005D00010401E2000F00CBB2DE9F041044680279E
:1005E00000F0F6FD0025174E4021304600F088FA55
:1005F000042001F0FDFA274204D08021304600F0AB
:1006000081FA03E08021304600F07AFA402130463A
:1006100000F078FA042001F0EBFA6006040E6D1C7D
:10062000EDB2082DE0D34021304600F069FA0820F1
:1006300001F0DEFA00F0C6FDBDE8F041082001F04F
:10064000D7BA0000000C014010B5002000F062FA9B
:10065000002000F097F9002000F0ACF9002000F035
:10066000A7F8002001F0CAF9BDE81040002001F011
:1006700007B910B501F08EFC10BB00F0E9F80A28AC
:1006800003DB00F0DFF8412801DD01F0D1FB00F0D1
:1006900059FBA8B100F042FB90B100F049FB78B1E2
:1006A00000F050FBB0F52F7F08D800F037FB64282E
:1006B00004D800F03DFBB0F5966F01D901F0D2FBF4
:1006C00001F068FC04280DD101F06AFC012809D171
:1006D00000F0BEF80A2805DD00F0B4F82D2801DA94
:1006E00001F00EFC01F056FC012815D101F058FC78
:1006F000012811D100F026FBB0F5C87F0CD200F024
:100700000DFB322808D200F013FBB0F5167F03D2A0
:10071000BDE8104001F0F4BB10BD4FF47A74FFF750
:10072000A8FF204602F09AFCF9E7FEE770B5174DE6
:100730002878002822D06A7815484FF4805132B1C9
:10074000521E6A70BDE87040012200F0DDB9AA783F
:1007500032B1521EAA70BDE87040002200F0D4B938
:100760000C4A2B7952F82330EA789C5CFF2C06D097
:100770006C70501C185CA870921CEA7070BD00224E
:1007800000F0C2F90020287070BD0000DC000020DD
:10079000000801405C3A0008044908710020C87054
:1007A000487088700120087070470000DC0000204D
:1007B000094A916800290ED0117981420BD0014677
:1007C0001071064819B10122402100F09DB90022A4
:1007D000402100F099B97047FC000020000801405A
:1007E00070B50546FF200023312410E0EA5C50403C
:1007F0000822060603D584EA4000C0B201E04006A4
:10080000000E521ED2B2002AF3D15B1CDBB28B4227
:10081000ECD370BD10B500F047FC094C40212046D8
:1008200000F05AF98021204600F056F94021204678
:1008300000F068F92046BDE81040802100F062B960
:10084000000C01400148006870470000E4000020EF
:100850000148406870470000E40000201CB568466D
:10086000FFF700FE094968B1009864225043000D6B
:1008700008600198C82250436FF0310202EB10501B
:1008800048601CBD0020086048601CBDE4000020DA
:100890007047000070B500F007FC00F009FC1A4C2E
:1008A0004FF40071204600F017F90221204600F0B5
:1008B00013F9164D2021284600F00EF91021284684
:1008C00000F00AF94021284600F006F9E114284614
:1008D00000F002F94FF48041204600F0FDF84FF49B
:1008E00000463146204600F0F7F8A114284600F0F3
:1008F000F3F8A115204600F082F831462046BDE805
:100900007040012200F000B9000C014000080140D5
:1009100070B5FFF7BFFF184C00224FF4007120465E
:1009200000F0F2F800220221204600F0EDF8134D0D
:1009300000222021284600F0E7F800221021284656
:1009400000F0E2F800224021284600F0DDF8002205
:10095000E114284600F0D8F800224FF480412046E8
:1009600000F0D2F80022A114284600F0CDF8044986
:100970000120886070BD0000000C014000080140AB
:10098000FC000020094A916800290ED0917881422C
:100990000BD001469070064819B10122202100F0C9
:1009A000B3B80022202100F0AFB87047FC0000204F
:1009B00000080140094A916800290ED0D17881428F
:1009C0000BD00146D070064819B10122102100F069
:1009D0009BB80022102100F097B87047FC0000205F
:1009E0000008014008B5ADF8001018218DF803107B
:1009F00003218DF80210694600F01BF808BD08B508
:100A0000ADF8001004218DF8031003218DF80210B9
:100A1000694600F00EF808BD08B5ADF80010482191
:100A20008DF8031003218DF80210694600F001F8DB
:100A300008BD2DE9F0410022CC7804F00F03E40654
:100A400001D58C7823430C784FF00F0714F0FF0F7B
:100A50004FF0010C1CD005680CFA02F40E882640F9
:100A6000A64211D1960007FA06F825EA080503FA0E
:100A700006F848EA0505CE78282E02D0482E02D086
:100A800002E0446100E00461521C082AE4D30560DE
:100A90000A88FF2A1ED94568002202F108060CFACE
:100AA00006F40E882640A64210D1960007FA06F8F2
:100AB00025EA080503FA06F848EA0505CE78282E47
:100AC00000D14461CE78482E00D10461521C082A1E
:100AD000E3D34560BDE8F08108B5ADF80010102102
:100AE0008DF8031003218DF802106946FFF7A1FF6E
:100AF00008BD0246002092680A4200D001207047DB
:100B00004161704701617047002A01D0016170475F
:100B10004161704710B512498A68002A1ED04A7890
:100B200082421BD0024648700E4C4FF4007152B105
:100B300001222046FFF7E8FF20460022BDE81040D2
:100B40000221FFF7E1BF00222046FFF7DDFF20462C
:100B50000022BDE810400221FFF7D6BF10BD000003
:100B6000FC000020000C0140FEE7000010B500F082
:100B70002FFB0F4C80212046FFF7C4FF082001F017
:100B800037F840212046FFF7BDFF082001F030F87C
:100B900080212046FFF7B4FF082001F029F840210A
:100BA0002046FFF7ADFFBDE81040082001F020B857
:100BB000000C014010B500F00BFB0C4C80212046CE
:100BC000FFF79EFF082001F013F840212046FFF7B1
:100BD00099FF082001F00CF880212046FFF792FFD2
:100BE000BDE81040082001F003B80000000C0140EF
:100BF00070B50446FFF7BAFF7020FFF7EDFC00F078
:100C0000B5FA2046FFF7E8FC00F0B0FA0020FFF745
:100C1000E3FC00F0ABFA0020FFF7DEFC00F0A6FAE0
:100C2000FFF7C8FF052000F0C7FFFFF79FFF712007
:100C3000FFF7D2FC00F09AFAFFF7E2FB00F0CEFAE1
:100C4000FFF7DEFB054600F0C9FAFFF7D9FB0646C1
:100C500000F0EEFAFFF7AEFF0A2000F0ADFFFFF75D
:100C600085FF7020FFF7B8FC00F080FA44F0B00078
:100C7000FFF7B2FC00F07AFA2846FFF7ADFC00F06F
:100C800075FA3046FFF7A8FC00F070FABDE8704036
:100C9000FFF790BF10B5074C80212046FFF730FFCB
:100CA0004FF4FA7000F088FF2046BDE81040802124
:100CB000FFF728BF0008014010B500F0F5F9012149
:100CC000480400F0D5F90F4C04212046FFF78AFEB6
:100CD00008212046FFF793FE00F0EEF98021204620
:100CE000FFF7FAFE084C4FF41651204600F0B6FD0F
:100CF000204600F005FD0122BDE8104011462620E7
:100D000000F011B90008014000440040012240F207
:100D10002551014800F020BD004400400348C1783F
:100D2000807801EB002080B270470000EC000020CA
:100D300003484179007901EB002080B27047000040
:100D4000EC00002003484178007801EB002080B2DD
:100D500070470000EC00002010B5054800F0AEFD23
:100D600020B1BDE81040024800F0B8BD002010BD21
:100D70004849002010B50DE00A4800F0AFFD2C28CE
:100D800008D1084800F09AFD20B1064800F0A6FD01
:100D9000E42805D0034800F091FD0028ECD110BDF7
:100DA000012010BD484900202DE9F041FFF7E2FF86
:100DB000002830D0FFF7D0FF184CE071FFF7CCFFD0
:100DC0002072FFF7C9FF6072FFF7C6FFA072FFF73E
:100DD000C3FFE072FFF7C0FF2073FFF7BDFF607332
:100DE000E279277A637AD119A57A1944E67A2944F7
:100DF00001EB060C217B8C440CF5887C0CF0FF0C7D
:100E0000844508D1002906D022706770A370E57070
:100E100026716171A071BDE8F0810000EC00002036
:100E200010B500F045F9BDE8104020210148FFF75A
:100E3000F3BD0000000C014010B520210348FFF76E
:100E400058FE08B1002010BD012010BD000C01406B
:100E5000FFF7E6BF10B5FFF7EFFF0649012804D002
:100E60000A78824204D0087010BD0870012010BDBD
:100E7000002010BDD400002070B5FFF7EBFF044642
:100E80000F4B104D4FF4805114B1012C11D106E0DD
:100E900000221846FFF738FE0020686070BD6868C1
:100EA000401C686001221846FFF72EFE002001F06A
:100EB000F3F90C3C062C01D2012070BD002070BD5E
:100EC00000080140D400002002F086F9FFF7D4FFAB
:100ED000FFF72CFC642002F0C1F8F5E7FEE710B53F
:100EE00001F058F806281CD2DFE800F01303070BC6
:100EF0000F17BDE8104001F0A1BEBDE8104001F0A1
:100F000007BFBDE8104001F0D7BEBDE8104001F0BA
:100F100063BEBDE8104001F027BFBDE8104001F0FE
:100F20004FBE10BD7047F8B504460D4616464FF447
:100F3000A06000F03FF88DF800408DF801508DF86A
:100F4000026001208DF80300684600F001F8F8BD4A
:100F500070B50F23C27801260178002A1ED0144AEA
:100F6000126802F4E062C2F5E062120AC2F10404FF
:100F7000D3404578A54082781A402A43120101F1F6
:100F8000E02181F80024007800F01F018E40400924
:100F9000800000F1E020C0F8006170BD01F01F008A
:100FA00086404809800000F1E020C0F8806170BDF3
:100FB0000CED00E002490843024908607047000058
:100FC0000000FA050CED00E02DE9F041224F4FF44E
:100FD000807631463846FFF78CFD204C032508B952
:100FE000206830B131463846FFF783FD012818D01C
:100FF0002CE0256000F0CEFF01280AD1FFF7C2FCEB
:101000000120FFF7D7FC00F0A3FF012801D1FFF773
:10101000CFFB00F0BFFF032818D1012000F030FC07
:1010200014E0256000F0B6FF012808D10020FFF78A
:10103000A9FC0020FFF7BEFC0020FFF7B9FB00F081
:10104000A9FF032802D1002000F01AFC2068401EEE
:101050002060BDE8F0810000000C0140B0000020DD
:101060004FF47A74FFF7B0FF204601F0F7FFF9E77D
:10107000054A002903D0D1690143D1617047D16984
:101080008143D1617047000000100240054A0029E9
:1010900003D09169014391617047916981439161E6
:1010A000704700000010024001210420FFF7EEBF4E
:1010B00001210820FFF7EABF01211020FFF7E6BF5A
:1010C00010B5264A516801F00C01254B002927D0A4
:1010D000042927D0082927D00360516801F0F001C6
:1010E0000909204B5C5C0168E1404160546804F4EC
:1010F000E064240A1C5D21FA04F48460546804F45A
:101100006054E40A1B5DD940C160526802F4404259
:10111000920B144B1B1F9A5CB1FBF2F1016110BDE5
:101120000360DAE70360D8E7516801F4701153688F
:1011300003F48033022404EB914133B153689B03E1
:1011400007D5094B59430160C7E7074B5943016075
:10115000C3E7034B59430160BFE7000000100240A2
:1011600000127A000400002000093D0070B5002440
:10117000134D40212846FFF7C3FC00F023F8082058
:1011800000F036FD40212846FFF7BCFC082000F0A7
:101190002FFD01E0641CA4B280212846FFF7A9FCC2
:1011A00008B1642CF6D3642C08D040212846FFF700
:1011B000A7FC082000F01CFD012070BD002070BDC0
:1011C000000C014080210148FFF719BC000C0140D0
:1011D00080210148FFF780BC000C014010B5134C82
:1011E00040212046FFF78CFC082000F001FDFFF7AE
:1011F000EFFF80212046FFF783FC082000F0F8FC79
:1012000040212046FFF77EFC082000F0F1FC402141
:101210002046FFF775FC082000F0EAFCFFF7D2FF3C
:10122000BDE81040082000F0E3BC0000000C0140C5
:1012300010B5144C40212046FFF762FC082000F056
:10124000D7FCFFF7C5FF80212046FFF75BFC082095
:1012500000F0CEFC40212046FFF754FC082000F0AF
:10126000C7FC40212046FFF74BFC082000F0C0FCE3
:1012700080212046FFF744FCBDE81040082000F024
:10128000B7BC0000000C014010B5FFF7C3FAFFF730
:101290006DFC7020FFF7A0F9FFF768FFA820FFF7AB
:1012A0009BF9FFF763FF0020FFF796F9FFF75EFF5A
:1012B0000020FFF791F9FFF759FFFFF77BFC0A20A9
:1012C00000F07AFCFFF752FC7020FFF785F9FFF77A
:1012D0004DFFBE20FFF780F9FFF748FF0820FFF71A
:1012E0007BF9FFF743FF0020FFF776F9FFF73EFF9A
:1012F000FFF760FC0A2000F05FFCFFF735F9C0F350
:10130000C100032806D0FFF75BF9BDE810400A20B2
:1013100000F052BC10BD000010B5FFF7CDFC08492D
:101320000020088048807F228A80A1F18C038B6096
:101330000C39088048808A80A1F58070886010BDD3
:1013400054490020AFF300800CB5002201920092B6
:101350002748016841F4803101604FF4A0630168BF
:1013600001F4003100910199491C0191009911B9D2
:1013700001999942F3D10168890302D501210091B5
:1013800000E000920099012930D11A490A6842F020
:1013900010020A600A6822F003020A600A6842F03A
:1013A00002020A604168416041684160416841F45D
:1013B00080614160416821F47C114160416841F4E1
:1013C000E8114160016841F08071016001688901A4
:1013D000FCD5416821F003014160416841F0020100
:1013E00041604168C1F381010229FAD10CBD0000BE
:1013F00000100240002002404FF0E021042804D0F9
:10140000086920F0040008617047086940F0040092
:101410000861704710B502F091F9012803D0BDE8CA
:10142000104001F089BF10BD10B50F48016841F0B0
:101430000101016041680D4A1140416001680C4A98
:1014400011400160016821F480210160416821F4AC
:10145000FE0141604FF41F018160FFF773FF0549F2
:101460004FF00060086010BD001002400000FFF85F
:10147000FFFFF6FE08ED00E070B501218D0728465C
:1014800000F027F800281CD00E4CA9140E48226842
:10149000C82A05D2521C22600122FFF735FB04E066
:1014A000521C22600022FFF72FFB2068B0F5C87F96
:1014B00001D1002020602846BDE87040012100F0E5
:1014C00005B870BDBC00002000080140C94301827E
:1014D000704702460020138A0B4092890A40002B75
:1014E00002D0002A00D00120704700002DE9F04111
:1014F00000F050FD042817D11D4C0425EF01206891
:10150000DFF870807826012805D16268052A0DD0A1
:101510009AB1521E62602068002805D16268052ACF
:1015200014D0DAB1521E6260BDE8F081656000221D
:1015300039464046FFF7E8FAEDE70122022140462E
:10154000FFF7E2FA002020606660E4E7656040464D
:10155000BDE8F04100220221FFF7D6BA0122394648
:101560004046FFF7D1FA012020606660DCE700000A
:10157000A8000020000C014070B51A4C40F22775FD
:101580002946204600F0C8F8012813D040F225551E
:101590002946204600F0C0F8012822D129462046DD
:1015A00000F09AF8204600F051F9C0B2BDE8704052
:1015B00001F07CBC0C4800F07BF930B10A4800F027
:1015C00083F90146204600F045F9074800F070F91C
:1015D000002806D129462046BDE87040002200F0D0
:1015E000BBB870BD003801403C47002070B51C4CB2
:1015F00040F227752946204600F08EF8012814D0C5
:1016000040F225552946204600F086F8012826D1CB
:101610002946204600F060F8204600F017F9C1B2D4
:10162000BDE870400F4800F06CB90E480C3000F077
:1016300045F938B10B480C3000F050F9014620460E
:1016400000F008F907480C3000F038F9002806D1FE
:1016500029462046BDE87040002200F07DB870BDEC
:10166000004400404849002070B5164C40F2255116
:10167000204600F051F800280ED0204600F0E6F891
:10168000C1B2114A1088030406D444044FF0000389
:1016900007D50A2901D0138070BD40F400401080A6
:1016A00070BD0D290AD0094DC0F30D042955401C09
:1016B00080B21080C728F3D9138070BD40F48040F9
:1016C000108070BD00480040B8000020F8450020A0
:1016D0008A05C9430180704740F66A120A0A01214F
:1016E0009140C94301807047002904D0818941F4A9
:1016F000005181817047818921F4005181817047B7
:1017000010B5044640212046FFF7E2FF2046BDE821
:1017100010400121FFF7E8BF70B5002440F66A12BF
:10172000C1F3421301F01F05012606FA05F2012B51
:101730000CD0022B0DD0838A1340090A8E400088FA
:1017400030400BB100B10124204670BD83891340A5
:10175000F3E7038A1340F0E710B540F66A13C1F3CC
:10176000421301F01F040121A140012B07D0022BDD
:1017700007D014303AB102680A43026010BD0C3041
:10178000F8E71030F6E702688A43026010BD0000F7
:1017900030B585B004460D46208A4CF6FF710840EE
:1017A000E98801432182A0894EF6F3110840A988F7
:1017B0002A8911436A8902431143A181A08A4FF605
:1017C000FF410840A9890143A1826846FFF778FCE0
:1017D0001D48844201D1039800E00298A1890904C0
:1017E00008D500EBC00101EB001029684900B0FBEF
:1017F000F1F007E000EBC00101EB0010296889005F
:10180000B0FBF1F06422B0FBF2F109010B096FF0BB
:1018100018056B4300EB8300A3891D044FF03203CE
:1018200007D503EBC000B0FBF2F000F0070008435F
:1018300006E003EB0010B0FBF2F000F00F000843ED
:10184000208105B030BD0000003801408088C0F321
:1018500008007047C1F30801818070471FB50091EF
:101860000021ADF80410ADF80610ADF80810ADF881
:101870000C100C21ADF80A106946FFF789FF1FBD57
:1018800009498A68002A0ED08A7982420BD0024622
:10189000887106484FF4804112B10122FFF734B934
:1018A0000022FFF731B97047FC000020000C014016
:1018B000018842888088891A0840704701884288D8
:1018C0008088891A08407047418882881140826860
:1018D000515C4288521C4280084670474188828889
:1018E00011408268515C4288521C42800846704711
:1018F000028883881A40836899540188491C0180B2
:101900007047028883881A40836899540188491C6B
:1019100001807047FEE7000070B5084D4FF4005499
:1019200021462846FFF7ECF84FF4FA7000F07CF9F6
:1019300021462846BDE87040FFF7E4B8001001409A
:1019400010B500F013F808490020088048807F2275
:101950008A8001F18C038B600C39088048808A8072
:1019600001F11800886010BD3C47002010B5FFF75A
:101970009BFB01218803FFF789FB104C4FF400719A
:101980002046FFF72FF821152046FFF738F8FFF71C
:1019900093FB61140A48FFF79FF80A4C4FF4E131BA
:1019A0002046FFF75BFF2046FFF7AAFE0022012139
:1019B000BDE810402520FFF7B6BA0000000801403E
:1019C0000010014000380140012240F22551014839
:1019D000FFF7C2BE0038014010B501460548FFF7C9
:1019E00087FFBDE81040012240F227710248FFF74F
:1019F000B3BE00003C4700200038014009498A6816
:101A0000002A0ED04A7982420BD00246487106481D
:101A10004FF4006112B10122FFF776B80022FFF700
:101A200073B87047FC00002000080140704710B5F3
:101A300000F0B0FA0146022000F0D8FBFEF708FFE4
:101A40000146092000F0F4FBFEF7FCFE01461620DB
:101A500000F0EEFBFFF776F90146652000F0E8FBA9
:101A6000FFF75CF90146662000F0E2FBFFF760F942
:101A70000146BDE81040672000F0DABB01780A0299
:101A8000417811430A02817811430902C078084362
:101A90007047FEF7D9BD00002DE9F0470746DFF893
:101AA000889009EB0705E9780122204809291CD212
:101AB000DFE801F005090D111A1D1F1B3500BDE8F7
:101AC000F04700F073BABDE8F04700F023BCBDE872
:101AD000F04700F059BAA979C170BDE8F04700227B
:101AE0000321084601F0E6BB4270BDE8F087827032
:101AF000FBE76879297940EA012800240CE03819CD
:101B00004844017A0902407A46182819801D00F0DD
:101B10000FF8A019001D84B24445F0D3E5E7BDE8F5
:101B2000F047FFF784BF0000C0460020C40000203B
:101B30002DE9F041044627786578A0780002E17825
:101B4000084486B2384600F009FA084901EB400023
:101B50004078A84202D00020BDE8F0813246211D25
:101B60003846BDE8F04100F0ADB80000143A000876
:101B700010B50420FFF740FC0C480D490D4A0068E1
:101B8000B0FBF1F31370B0FBF1F14FF47A70414305
:101B9000012050804FF0E020026942F00202026111
:101BA0004161016941F00101016110BD8000002027
:101BB00040420F00B400002070B5044601F0BEFDA5
:101BC00001280CD0094D6888844203D3B4FBF0F09F
:101BD00001F044FA6888B4FBF0F100FB11444FF4C3
:101BE0007A706043BDE8704000F002B8B400002095
:101BF00070B500214FF0E0256C690A4A1278504315
:101C0000AB69AA699A42FCD003D2A3EB0203194440
:101C100003E0A4EB02063344194413468142F0D397
:101C200070BD0000B400002070B5054600244FF4DC
:101C30007A7603E03046FFF7DBFF641CAC42F9D351
:101C400070BD10B500F022FB0146692000F0A6FA35
:101C5000012801D0002010BD012010BD10B500F0FA
:101C600015FB0146042000F099FA012801D000205C
:101C700010BD012010BD10B500F00CFB0146062080
:101C800000F0D6FA012801D0002010BD012010BDBF
:101C900010B500F0FBFA0146052000F07FFA01289C
:101CA00001D0002010BD012010BD10B500F0EEFAEB
:101CB00001460E2000F072FA012801D0002010BD6C
:101CC000012010BD034608461146062B20D006DC35
:101CD000062B25D2DFE803F024121416181A102B55
:101CE0001AD005DC0E2B15D00F2B19D100F05BB8E4
:101CF000682B13D0692B13D1FFF7A3BF00F060B896
:101D000000F00FB800F076B8FFF7A8BFFFF7C0BF2C
:101D1000FFF7B1BFFFF7C9BF00F038B800F05DB8FA
:101D2000704710B500F0B4FA0446062C24D2DFE860
:101D300004F003060C12181E00F0E2F81CE000F09C
:101D400091F8002001F03EF816E000F0BFF8002006
:101D500001F038F810E000F09FF8002001F032F8B0
:101D60000AE000F065F8002001F02CF804E000F033
:101D70004FF8002001F026F82146022000F036FA44
:101D8000012801D0002010BD012010BD10B500F0C9
:101D90007DFA0146102000F001FA012801D0002050
:101DA00010BD012010BD10B500F070FA01460F20E3
:101DB00000F0F4F9012801D0002010BD012010BD71
:101DC00010B500F063FA0146012000F0E7F90128A0
:101DD00001D0002010BD012010BD10B500F05AFA4E
:101DE0000146682000F024FA012801D0002010BD2F
:101DF000012010BD10B500F049FA0146032000F0A3
:101E0000CDF9012801D0002010BD012010BD000037
:101E100010B5FEF719FC054900200874052000F0F4
:101E2000CBFFBDE810400120FEF7B6BC94000020B7
:101E300010B5FEF709FC00F0DCF809490020087332
:101E400048738873042000F0B7FF00F0A3F8014640
:101E5000022000F0CBF9BDE810400120FEF79CBC49
:101E60009400002010B5FEF7EFFB00F0D4F809490C
:101E70000020C87008714871012000F09DFF00F03B
:101E800089F80146022000F0B1F9BDE810400120B8
:101E9000FEF782BC9400002010B5FEF7D5FB00F0E1
:101EA0009AFF0949002048728872C872032000F026
:101EB00083FF00F06FF80146022000F097F9BDE8BB
:101EC00010400120FEF768BC9400002010B5FEF71A
:101ED000BBFB01F094FD094900208871C8710872AC
:101EE000022000F069FF00F055F80146022000F0E2
:101EF0007DF9BDE810400120FEF74EBC94000020A3
:101F000010B5FEF7A1FB0A490020C873012000F0BC
:101F100059FF002000F050FF00F03CF8014602207D
:101F200000F064F9BDE810400120FEF735BC000068
:101F30009400002010B50023002205E010F8014BAA
:101F40002344DBB2521C92B28A42F7D3184610BD2A
:101F500001488078704700009400002010B50446C6
:101F600000F010F801460020054A05E012F8103094
:101F7000A34203D0401CC0B28842F7D310BD00007A
:101F8000143A00081620704700220321022001F0B5
:101F900091B90000014800787047000094000020CB
:101FA00001484078704700009400002010B50020E0
:101FB0000A4B1978002909D0012100F0F5FEC2B2C0
:101FC0000321BDE81040002001F074B9002100F0A9
:101FD000EBFEC2B201201870F2E70000C40000203E
:101FE00010B50020FEF7CEFCBDE810400020FEF743
:101FF00091BD10B50120FEF7C5FCBDE810400120E1
:10200000FEF788BD10B50020FEF7BCFCBDE810400F
:102010000020FEF7CFBC10B50120FEF7B3FCBDE8F1
:1020200010400120FEF7C6BC2DE9FC41FFF7A0FDE2
:10203000FEF76EFCFEF72EFCFEF70AFFFFF724F911
:10204000FFF76AF94FF4E13000F0DCFEFFF778FCAF
:10205000FFF762FC01F0AAF8FFF7B6FCFEF71AFEE4
:10206000FEF754FE00240125CDE9005423466422E6
:1020700032A1344801F032FBCDE900540023642240
:1020800031A1334801F02AFBCDE90054002364223A
:1020900030A1324801F022FB31484FF47A760090AB
:1020A0000023012231462FA001F046FC05463048AE
:1020B00000900023012242F210712EA001F03CFC9E
:1020C00080462E480090002301224EF660212CA06D
:1020D00001F032FC07462D480090002301223146D2
:1020E0002BA001F029FC064601F036FB0246002336
:1020F00001212846009401F055FC01F02DFB024619
:10210000002301214046009401F04CFC01F024FB27
:102110000246002301213846009401F043FC01F0FF
:102120001BFB0246002301213046009401F03AFCDB
:1021300000F0E0FF0020BDE8FC8100005461736BFB
:1021400031000000C90E00085461736B32000000BA
:102150001B0700085461736B330000006110000816
:102160007D2F00084175746F52656C6F61640000CB
:10217000A93100085570646174650000792F00086A
:102180004D6F64655461736B00000000112F0008EF
:102190004865617454696D650000000010B5024621
:1021A0000C46002010490978012916D0114600F08C
:1021B000FBFD012100F0F8FD002100F0F5FD0121FB
:1021C00000F0F2FD5CB1012100F0EEFD02460321BA
:1021D000072001F06FF8012010BD012010BD002183
:1021E00000F0E2FD0246F2E7D000002010B5024602
:1021F0000C4600200D490978012915D0114600F040
:10220000D3FD042100F0D0FD002100F0CDFD01211F
:1022100000F0CAFD214600F0C7FD02460321072059
:1022200001F048F8012010BD012010BDD0000020B1
:1022300010B502460C46002013490978012920D028
:10224000114600F0B1FD022100F0AEFD002100F0CA
:10225000ABFD042100F0A8FD210E00F0A5FDC4F3A4
:10226000074100F0A1FDC4F3072100F09DFDE1B29C
:1022700000F09AFD02460321072001F01BF801201F
:1022800010BD012010BD0000D00000200078704774
:1022900000787047FFF7F2BB10B50146054A0020F1
:1022A000107000F081FDC2B20321BDE8104005208E
:1022B00001F000B8C600002030B504462046002CCE
:1022C00008D00B0006D0884202D98B18834212D264
:1022D000002305E0002030BDCD5CC5545B1C9BB2E3
:1022E0009342F9D309E08B18851813F8013C05F8DF
:1022F000013C521E92B2002AF5D1204630BD002189
:10230000002801D17047491C10F8012B002AFAD18E
:102310000846704710B5002422A0FFF7F0FF82B2F4
:1023200020A1204600F032FDC4B220A0FFF7E7FF55
:1023300082B21EA1204600F029FDC4B220A0FFF702
:10234000DEFF82B21EA1204600F020FDC4B21EA016
:10235000FFF7D5FF82B21CA1204600F017FDC4B2E2
:102360001BA0FFF7CCFF82B219A1204600F00EFDA2
:10237000C4B219A0FFF7C3FF82B217A1204600F034
:1023800005FDC4B215A0FFF7BAFF82B213A1204623
:1023900000F0FCFCC2B20321BDE81040012000F0B7
:1023A00089BF00007B2270223A2200003778643215
:1023B00037646E72727774367433346D00000000C7
:1023C000222C2276223A2200312E302E30000000BC
:1023D000222C226D223A0000310000007D00000016
:1023E0002DE9F04104460F46174EF5683068001D90
:1023F00000F07CFD38B9306890F82C10012088403E
:10240000316981433161601C07D137B13168BDE862
:10241000F041091D0D4800F0A3BD2C443068446014
:10242000AC4206D23168B06B091DBDE8F04100F046
:102430007FBD3168706B091D00F07AFDB06A84427F
:1024400000D2B462BDE8F08130000020BC4500201D
:1024500070B5044600F09AFD1C4DA868401CA860A9
:10246000286810B1686938B10CE02C60A8680128B0
:1024700008D100F073F905E02868E16AC06A884273
:1024800000D82C60686A401C6862E06A01212A69F1
:102490008140114329610E4900EB800001EB80006F
:1024A000211D00F05DFD00F07FFD686900280CD063
:1024B0002868E16AC06A884207D206494FF0805016
:1024C0000860BFF34F8FBFF36F8F70BD30000020E7
:1024D0000845002004ED00E010B500F057FD0C4C5D
:1024E000206880B90B4800F015FD0A48143000F050
:1024F00011FD0848E0601430206100220C21052005
:1025000000F030FF2060BDE8104000F04DBD00003D
:102510006C000020D045002070B5124E124D1CE01A
:1025200000F016FE306820B1002401F0ABF9A4B928
:1025300001E00124F9E700F029FDF068C468201DDE
:1025400000F0D4FCA868401EA8606868401E68605F
:1025500000F02AFD204600F04BF868680028DFD123
:1025600070BD0000A84500203000002030B40B46AC
:10257000026C002A0CD0C1681144C1604468A142B9
:1025800001D30168C160C16830BC1846FDF78BBE3D
:1025900030BC70472DE9F041044617460026A56B74
:1025A000226C002A1FD07FB1E068FDF77CFEE16855
:1025B000206C091AE1602268914202D26168081A0F
:1025C000E060022F0DD00EE0A068FDF76CFE216CDC
:1025D000A0680844A0606168884204D32068A060B5
:1025E00001E005B16D1E6D1CA5633046BDE8F081AC
:1025F00010B50446206B00F0E3FC2046BDE8104017
:1026000000F0DEBC0749CA681168002904D0002127
:10261000016019B1002070470121F9E7D068006816
:10262000704700006C0000204FF488410F484207BB
:1026300006D0C01D20F007000C49411AC1F58841A1
:102640000B4A1060002353600144083921F0070150
:10265000103A11604B600B600B1A436001604068D8
:10266000906050604FF00040D0607047080100203B
:1026700024000020074E4FF08054074DFFF74CFF19
:1026800030680128FAD92C60BFF34F8FBFF36F8FEA
:10269000F4E700000845002004ED00E00346009840
:1026A000002905D00260C3630164012100F002BF6C
:1026B0000060F8E72DE9F0478146DDE908560A9CFD
:1026C0009846521E206B00EB820020F00707002086
:1026D00023180A5C83F834200A5C12B1401C1028CD
:1026E000F6D34FF0000A84F843A0052D00D304254B
:1026F000E562201D00F019FC04F1180000F015FC43
:102700002461C5F10500A0616462C4F844A084F8A6
:1027100048A042464946384600F044FA2060002E60
:1027200000D03460BDE8F0872DE9F0470546DDE9CB
:1027300008940E4617469846002C0DD0FFF7CCFEA5
:102740002560A661E761C4F82080C4F82490201DAC
:10275000BDE8F04700F0E9BBBDE8F08770B50024A4
:10276000124D04EB840005EB800000F0D3FB641CE9
:10277000052CF6D30D48643000F0CCFB0B487830C4
:1027800000F0C8FB09488C3000F0C4FB0748A030BB
:1027900000F0C0FB0548B43000F0BCFB034904481E
:1027A000643141631431816370BD0000084500202D
:1027B0003000002030B5134900E011460A6882421B
:1027C000FBD34B685C18844203D1406818444860CE
:1027D00008460D6844682318AB420DD1094B103BE5
:1027E0001B689A4206D05268224442600A68126806
:1027F000026002E0036000E00260814200D00860F5
:1028000030BD00002400002070B50024416000614C
:102810000C4D91420AD8D11A8269914201D3012408
:102820000EE0011D286900F083FB09E09A4203D203
:10283000994201D3012403E0011DE86800F078FB10
:10284000204670BD6C00002010B5044600F09EFBD1
:10285000A06B20B1002400F0A7FB204610BD01248E
:10286000F9E710B5044600F091FBA06BE16B8842DC
:1028700001D1012400E0002400F096FB204610BDA9
:10288000F8B505460E461048C068C068C468201DEB
:1028900000F02CFBE06901280FD1A0692B464119FB
:1028A00032462046FFF7B0FF38B10020034601460C
:1028B00000902A46204601F075F8616A01B0204672
:1028C000BDE8F040084700006C00002030B585B03E
:1028D000234D3AE00298002837DB049C606910B170
:1028E000201D00F003FB01A800F084F802460298C6
:1028F0000A282AD2DFE800F0050505291E2605056D
:10290000291E0398A169034601442046FFF77CFF76
:10291000D8B1616A20468847E069012815D10020B6
:1029200000900398A169002342181946204601F03F
:1029300039F80AE00398A061811813462046FFF792
:1029400063FF02E0204600F03BFB00231A4602A989
:10295000286800F021FD0028BCD105B030BD000082
:102960006C000020F8B506460D4600F0F1FB684605
:1029700000F040F80446009810B100F083FFF8BD65
:1029800045B9A64206D800F07DFF21463046FFF744
:1029900077FFF8BD0C481DB10169096891B10025A8
:1029A000311B2A46006800F035FB00F06BFF002861
:1029B000EFD106494FF080500860BFF34F8FBFF34F
:1029C0006F8FF8BD0125EBE76C00002004ED00E0FF
:1029D0000748416B0968002905D0416BC968C9687F
:1029E0004968816270474FF0FF3181627047000093
:1029F0003000002070B5054600F0AEFE0446074EDC
:102A0000B068844204D200F00BF80120286001E095
:102A100000202860B460204670BD00006C000020DB
:102A2000F8B5154E1EE0C0680568C468201D00F0AA
:102A30005DFA616A20468847E069012812D1A069E1
:102A40002844A84206D960602461211DF06800F086
:102A50006FFA07E000200346014600902A46204610
:102A600000F0A0FFF06801680029DCD1F06831694E
:102A7000F1603061F8BD00006C000020BF2080F3E1
:102A80001188BFF34F8FBFF36F8FFEE708B568461D
:102A9000FFF7B8FD0099FFF765FFFFF717FFF6E7AF
:102AA0002DE9F041044600F071FA94F9455004F123
:102AB000240609E0606A48B1304600F0AFFE08B174
:102AC00000F0E6FA6D1E6DB2002DF3DC4FF0FF361C
:102AD00084F8456000F068FA00F058FA94F9445020
:102AE00004F1100709E0206948B1384600F096FE6D
:102AF00008B100F0CDFA6D1E6DB2002DF3DC84F844
:102B00004460BDE8F04100F04FBA00002DE9F0410B
:102B10000546002600F01CFB214F386808B9FFF776
:102B200083FDF868054236D13DB10835680704D009
:102B300005F00700C0F10800054465B378688542D8
:102B400029D8174910310846046801E02146044697
:102B50006068A84202D220680028F7D13868844211
:102B600019D00E680836206808606068411B10297B
:102B700004D9601941606560FFF71CFE61687868E0
:102B8000401A7860BA68904200D2B860F868014391
:102B900061600020206000F075FE3046BDE8F081E5
:102BA0001400002020384FF08073C36121F0010130
:102BB00081610249416140F8202970477D2A00085F
:102BC0000449087C002803D0401E0874FEF761BF4A
:102BD000704700009400002010B5144B187B0028AB
:102BE00002D0401E187310BD587B28B1401E587388
:102BF000BDE81040FFF7F4B90D4A987B115C024420
:102C00005278FF2906D0FF2A04D019735A73801C0A
:102C1000987310BDFFF7E4F90649012008600649E2
:102C200078200860BDE81040FFF76AB994000020E2
:102C3000113A0008A8000020AC00002010B51C4C80
:102C4000E078002804D0401EE070FFF7E4F913E0BC
:102C5000207920B1401E2071FFF7D4F90CE0154A0D
:102C60006079115C02445278FF2914D0FF2A12D0F7
:102C7000E1702271801C6071E078012810D0062874
:102C80000ED00A280CD00020FDF792FDBDE81040C0
:102C9000002000F075B8FFF7B5F9FFF731F9EBE761
:102CA0000120FDF785FDBDE81040012000F068B867
:102CB00094000020083A000810B5134B587A0028F9
:102CC00005D0401E5872BDE8104000F084B8987AD4
:102CD00028B1401E9872BDE8104000F079B80B4A48
:102CE000D87A115C02445278FF2906D0FF2A04D01A
:102CF00059729A72801CD87210BD00F069F8BDE854
:102D00001040FFF7FDB80000940000200E3A0008C4
:102D100010B5134B9879002805D0401E9871BDE876
:102D2000104000F06CBED87928B1401ED871BDE8C3
:102D3000104000F061BE0B4A187A115C02445278D0
:102D4000FF2906D0FF2A04D09971DA71801C18720D
:102D500010BD00F051FEBDE81040FFF7D1B80000F3
:102D6000940000200B3A00080449C87B002803D0D7
:102D7000401EC87300F046BE70470000940000205B
:102D800001498870704700009400002070B5044627
:102D9000154604482044801D2A46FFF78DFA601925
:102DA00080B270BDF6460020024A02449171401C78
:102DB00080B27047F6460020014908707047000055
:102DC00094000020014948707047000094000020E2
:102DD0000020FEF755BD0120FEF752BD074AD2E99B
:102DE0000131994208D00648814201D317389060DA
:102DF000916811F8010B916070470000C400002039
:102E0000F646002030B587B0054601210820FEF7C0
:102E10003DF901218804FEF72BF94FF40061ADF86C
:102E2000041048208DF807001E4C01A92046FDF72C
:102E300000FE2015ADF8040003218DF806101821BE
:102E40008DF8071001A92046FDF7F3FD27208DF826
:102E5000080000248DF8094002218DF80A10012194
:102E60008DF80B1002A8FEF773F80395ADF810402B
:102E7000ADF81240ADF81440ADF818400C20ADF894
:102E80001600094C03A92046FEF782FC012240F2FD
:102E900025512046FEF760FC01212046FEF724FC68
:102EA00007B030BD000C01400048004010B50B4990
:102EB0000B4B0A681968541A012C0ED0914202D9A2
:102EC0008A1A172A09D2074A914202D3A2F117019E
:102ED0001960196801F8010B196010BDCC000020C1
:102EE000C8000020F6460020FEF776BD0169D0E953
:102EF00001329A60D0E901235A604A68824201D1C6
:102F000082684A60002202610868401E08607047BB
:102F1000FEF7ECBA00F1080141604FF0FF32826029
:102F2000C1600161002101607047002101617047AB
:102F300030B50C68621C02D000F1080202E00269A0
:102F400004E01A4653681D68A542FAD953684B60DD
:102F500099608A60516008610168491C016030BD58
:102F600042684A6093688B60936859609160086119
:102F70000168491C01607047FDF7B1BF10B5FDF74E
:102F80006DFCBDE81040FDF70FBF0000BF2080F3CF
:102F90001188BFF34F8FBFF36F8F02480168491C40
:102FA000016070472C00002004490868401E08603A
:102FB000002801D180F31188704700002C00002008
:102FC00070B5002818D0083804460C4D6068E968D0
:102FD000084211D02268002A0ED18843606000F0B8
:102FE000B7F860686968084468602046FFF7E2FB4C
:102FF000BDE8704000F046BC70BD00001400002029
:103000004FF0E02002494161072101617047000053
:103010003F19010070B504460D461646FFF7B6FF8E
:1030200094F944304FF000005B1C01D184F8440057
:1030300094F94510491C01D184F84500FFF7B4FF0D
:10304000A06B28B93246294604F1240000F036F876
:103050002046BDE87040FFF723BD000010B50246D2
:103060000020002A07D000F073F800211046FFF777
:10307000B7F900F007FC002807D104494FF0805051
:103080000860BFF34F8FBFF36F8F10BD04ED00E0FA
:1030900001490120C86170473000002010B50C467E
:1030A000054909681831FFF743FF2046BDE8104085
:1030B0000121FFF795B900003000002070B50D46E2
:1030C0001446074909681831FFF74AFF0CB14FF061
:1030D000FF3521462846BDE87040FFF781B9000062
:1030E0003000002002490A6A0260C96841607047E6
:1030F000300000201CB512480024CDE900402346D2
:10310000802210A1114800F0E9FA012801D100F055
:103110002BFC012812D1BF2080F31188BFF34F8F01
:10312000BFF36F8F06484FF0FF312C3881620121C9
:103130004161C460BDE81C4000F0E6B81CBD000061
:103140005C00002049444C45000000007526000842
:103150000248016B491C01637047000030000020E9
:103160000F4A106B002802D00120D0617047002068
:10317000D0611069B0FA80F0C0F11F00094900EB7E
:10318000800001EB800041684968416000F108035C
:10319000994201D1496841604068C0681060704739
:1031A0003000002008450020FEF741BC06490548D4
:1031B0000860064908600649002008700549FF209C
:1031C00008707047DF460020C8000020CC000020B7
:1031D000D0000020C70000202DE9F04100242B4E34
:1031E0002B4F06E0FFF7FAFD02463888411C398074
:1031F000325438881F2803D200F07AF80028F1D121
:103200003888072840D32FE0305D552802D0641C51
:10321000A4B229E030194278AA2A02D0641CA4B2D0
:1032200022E0827812B1A41CA4B21DE0027912023D
:103230004379D21D1A4495B2262D02D9E41CA4B2BA
:1032400012E0A94214DB691E89B2FEF773FE254421
:10325000A91911F8011C884202D0E41CA4B203E0B1
:103260002046FEF719FCACB23888011B0729CBDADF
:103270003888001B82B23A80002A05D03119BDE897
:10328000F0410248FFF718B8BDE8F081C0460020C1
:10329000C000002070B505460C46002D09D0002C5A
:1032A00007D003E02878FFF71FFE6D1C641EA4B250
:1032B000F8D270BD70B50D4C55232370AA236370EE
:1032C000A170E070100A20716271D21D95B2681E63
:1032D00081B22046FEF72EFE611901F8010C294645
:1032E0002046BDE87040FFF7D5BF0000F64600203D
:1032F0000448D0E90110814201D00120704700202C
:1033000070470000C400002010B50948016841F46E
:103310007F010160016841F07F410160FFF770FEAD
:10332000044900200860FCF763FF002010BD000086
:1033300020ED00E02C00002010B5BF2080F31188A4
:10334000BFF34F8FBFF36F8F00F00CFA18B1044931
:103350004FF080500860002080F3118810BD0000FD
:1033600004ED00E0F8B506460D461746002D10D0D6
:1033700006FB05F04830FFF7C9FB04463CB104F1F9
:1033800048023B46294630460094FFF787F920461D
:10339000F8BD0020EEE700002DE9FF4F83B00446A2
:1033A0008B469A460026B1464FF08057DFF80081E1
:1033B000FFF7ECFDA56B6DB3E66859462046FFF7B5
:1033C000D5F8BAF1000F13D0E660606A50B104F18D
:1033D000240000F023FA28B1C8F80070BFF34F8F23
:1033E000BFF36F8FFFF7E0FD012007B0BDE8F08F5E
:1033F0006D1EA56320690028F4D004F1100000F0D0
:103400000DFA0028EED0C8F80070BFF34F8FBFF35D
:103410006F8FE7E7059808B126B107E0FFF7C4FD15
:103420000020E2E701A8FFF75DFE0126FFF7BCFDE3
:10343000FFF78EFEFFF7AAFD94F94400401C01D16E
:1034400084F8449094F94500401C01D184F84590DB
:10345000FFF7AAFD05A901A800F018F958B1204608
:10346000FFF71EFB00F00EFA2046FFF7EDF90028EB
:103470009ED00020B9E72046FFF7E6F990B104F1AD
:1034800024000599FFF70AFE2046FFF709FB00F02C
:10349000F9F900288CD1C8F80070BFF34F8FBFF343
:1034A0006F8F85E72046FFF7FBFA00F0EBF97FE727
:1034B00004ED00E070B504460D46FFF767FDD4E962
:1034C0000F12206801FB020060600020A0632068EA
:1034D000A060E06B226C2168401E00FB0210E060DF
:1034E0004FF0FF3084F8440084F8450004F11000E8
:1034F0004DB1FFF70FFD04F12400FFF70BFDFFF7BF
:1035000053FD012070BD21690029F8D000F086F933
:103510000028F4D004494FF080500860BFF34F8F6B
:10352000BFF36F8FEBE7000004ED00E02DE9FF47EC
:1035300082B004468A4699460025A8464FF0805638
:10354000374FFFF723FDA06BE16B884206D3B9F13B
:10355000020F03D00498F8B115B325E04A4651464E
:103560002046FFF717F8616A51B104F1240000F01A
:1035700055F958B13E60BFF34F8FBFF36F8F05E031
:1035800020B13E60BFF34F8FBFF36F8FFFF70CFD8D
:10359000012006B0BDE8F087FFF706FD0020F8E740
:1035A0006846FFF79FFD0125FFF7FEFCFFF7D0FD02
:1035B000FFF7ECFC94F94400401C01D184F84480EE
:1035C00094F94500401C01D184F84580FFF7ECFCDC
:1035D00004A9684600F05AF830B12046FFF760FAB7
:1035E00000F050F90020D4E72046FFF73AF988B1FF
:1035F00004F110000499FFF751FD2046FFF750FA3F
:1036000000F040F900289CD13E60BFF34F8FBFF31C
:103610006F8F96E72046FFF743FA00F033F990E703
:1036200004ED00E02DE9F041174604461A46BF209C
:10363000EFF3118680F31188BFF34F8FBFF36F8FC5
:10364000A06BE36B984206D3022A04D0002086F3D5
:103650001188BDE8F08194F945502046FEF79AFFA5
:10366000681C04D06D1C84F845500120EFE7606AA7
:103670000028FAD004F1240000F0D0F80028F4D09B
:10368000002FF2D001203860EFE7000070B504464B
:103690000D46FFF77BFC1049C8682A68531C08D008
:1036A0002368096A8B4206D06168814203D80124ED
:1036B0000DE000240BE06168401A904206D2101A17
:1036C00028602046FFF70EFD002400E00124FFF7EC
:1036D0006BFC204670BD0000300000202DE9FF5F2C
:1036E0008146DDE90E788A4616469B46B000FFF714
:1036F0000DFA054628000AD04C20FFF707FA0446C9
:103700000CB1256304E02846FFF75AFC00E00024D2
:103710008CB10020CDE90240CDE900785B4632460D
:1037200051464846FEF7C6FF2046FEF791FE0120AF
:1037300004B0BDE8F09F4FF0FF30F9E7054841695C
:10374000002903D0006B18B100207047012070479A
:1037500002207047300000200148C0687047000018
:10376000300000202DE9F04100262A4F386B002858
:1037700008D0B869401CB861F86900B1012630462C
:10378000BDE8F081FD686D1CFD6045B9786BB96BD3
:103790007963B863386A401C3862FFF719F9B86A70
:1037A000DFF8748085420DD3786B006838B1786B90
:1037B000C068C468606885420ED2B86202E04FF00B
:1037C000FF30B8623868C06A00EB800058F820000B
:1037D0000128D1D90126CFE7201DFFF787FBA06A7A
:1037E00018B104F11800FFF781FBE06A01213A6982
:1037F00081401143396100EB800008EB8000211DFE
:10380000FFF7AEFBE06A3968C96A8842CCD301266B
:10381000CAE7000030000020084500202DE9F041F3
:10382000C068C46804F118000746FFF75FFB134D3A
:103830002A6B012662B139461148FFF791FBE06A15
:103840002968C96A884216D90120EE61BDE8F08175
:10385000201DFFF74BFBE06A2A6906FA00F11143CD
:103860002961074900EB80008C3901EB8000211DA4
:10387000FFF776FBE3E70020E8E7000030000020D8
:10388000944500202DE9F04100240027FFF77EFB3E
:10389000264D286B401E2863286BE8BBA868D8B368
:1038A000DFF88C8001261EE0D8F80C00C46804F113
:1038B0001800FFF71BFB201DFFF718FBE06A2A69C1
:1038C00006FA00F111432961194900EB80008C3997
:1038D00001EB8000211DFFF743FBE06A2968C96AFC
:1038E000884200D3EE61D8F800000028DCD10CB18A
:1038F000FFF76EF8AC6944B1FFF734FF00B1EE6139
:10390000641E002CF8D10020A861E86920B10127CD
:1039100008493807086000E003E0BFF34F8FBFF3AA
:103920006F8FFFF741FB3846BDE8F0813000002083
:103930009445002004ED00E02DE9FC4706460A9D71
:103940000F46904699462820FFF7E0F804463CB120
:10395000CDE900544B46424639463046FEF7E4FE78
:103960002046BDE8FC8700001CB50024FEF7B4FD2E
:103970000848006858B107481F21001DCDE9001014
:103980000023802204A10648FFF7A8FE0446204633
:103990001CBD00006C000020546D72205376630043
:1039A0008D2A0008FEB50646089F9C460020114D52
:1039B0002C68002C0ED0009101920296062911DA93
:1039C000FFF7BCFE022806D000231A466946286885
:1039D000FFF7ACFDFEBD00233A4669462868FFF7B5
:1039E000A5FDFEBD0023624669462046FFF71AFE8C
:1039F000FEBD00006C0000200020FDF7FFBF01208D
:103A0000FDF7FCBFFCF720BE0A00FF0A00FF05001F
:103A1000FF0F00FF0101020403010401050106027A
:103A20000702080509020C010D010E010F0110012A
:103A300015041602650266026702680269016A02DD
:103A400001010101FF01020102FF01030103FF0166
:103A5000040104FF1405FF3205FF0000403A00088E
:103A6000453A00084A3A00084F3A0008543A00081C
:103A7000573A0008943A00080000002008010000AE
:103A80006C0100089C3B000808010020B84E0000B3
:103A90008801000802040608000000000102030477
:103AA00001020304060708090000000000000000EE
:103AB0000000000000000000000000000000000006
:103AC000AAAAAAAA0000000000000000000000004E
:103AD00000000000000000000000000000000000E6
:103AE00000000000000000000000000000000000D6
:103AF00000000000000000000000000000000000C6
:103B000000000000000000000000000000000000B5
:103B10000000000000A24A040000000000000000B5
:103B20000102030406070809050100000000000067
:103B30000000000000000000000000000100000084
:103B400078000000000000000000000000000000FD
:103B50000000000000000000000000000000000065
:103B60000000000000000000000000000000000055
:103B70000000000000000000000000000000000045
:103B80000000000000000000000000000000000035
:0C3B900000000000000000000000000029
:040000050800026588
:00000001FF
